{
  "_format": "hh-sol-artifact-1",
  "contractName": "SnakeGameScore",
  "sourceName": "contracts/SnakeGameScore.sol",
  "abi": [
    {
      "inputs": [],
      "stateMutability": "nonpayable",
      "type": "constructor"
    },
    {
      "anonymous": false,
      "inputs": [
        {
          "indexed": true,
          "internalType": "address",
          "name": "player",
          "type": "address"
        },
        {
          "indexed": false,
          "internalType": "uint256",
          "name": "oldScore",
          "type": "uint256"
        },
        {
          "indexed": false,
          "internalType": "uint256",
          "name": "newScore",
          "type": "uint256"
        }
      ],
      "name": "HighScoreUpdated",
      "type": "event"
    },
    {
      "anonymous": false,
      "inputs": [
        {
          "indexed": true,
          "internalType": "address",
          "name": "player",
          "type": "address"
        },
        {
          "indexed": false,
          "internalType": "uint256",
          "name": "score",
          "type": "uint256"
        },
        {
          "indexed": false,
          "internalType": "uint256",
          "name": "timestamp",
          "type": "uint256"
        }
      ],
      "name": "ScoreSubmitted",
      "type": "event"
    },
    {
      "inputs": [],
      "name": "emergencyWithdraw",
      "outputs": [],
      "stateMutability": "nonpayable",
      "type": "function"
    },
    {
      "inputs": [
        {
          "internalType": "address",
          "name": "player",
          "type": "address"
        }
      ],
      "name": "getHighScore",
      "outputs": [
        {
          "internalType": "uint256",
          "name": "",
          "type": "uint256"
        }
      ],
      "stateMutability": "view",
      "type": "function"
    },
    {
      "inputs": [],
      "name": "getPlayerCount",
      "outputs": [
        {
          "internalType": "uint256",
          "name": "",
          "type": "uint256"
        }
      ],
      "stateMutability": "view",
      "type": "function"
    },
    {
      "inputs": [
        {
          "internalType": "address",
          "name": "player",
          "type": "address"
        }
      ],
      "name": "getPlayerScores",
      "outputs": [
        {
          "internalType": "uint256[]",
          "name": "",
          "type": "uint256[]"
        }
      ],
      "stateMutability": "view",
      "type": "function"
    },
    {
      "inputs": [
        {
          "internalType": "uint256",
          "name": "limit",
          "type": "uint256"
        }
      ],
      "name": "getTopScores",
      "outputs": [
        {
          "internalType": "address[]",
          "name": "",
          "type": "address[]"
        },
        {
          "internalType": "uint256[]",
          "name": "",
          "type": "uint256[]"
        }
      ],
      "stateMutability": "view",
      "type": "function"
    },
    {
      "inputs": [
        {
          "internalType": "address",
          "name": "",
          "type": "address"
        }
      ],
      "name": "highScores",
      "outputs": [
        {
          "internalType": "uint256",
          "name": "",
          "type": "uint256"
        }
      ],
      "stateMutability": "view",
      "type": "function"
    },
    {
      "inputs": [],
      "name": "owner",
      "outputs": [
        {
          "internalType": "address",
          "name": "",
          "type": "address"
        }
      ],
      "stateMutability": "view",
      "type": "function"
    },
    {
      "inputs": [
        {
          "internalType": "address",
          "name": "",
          "type": "address"
        },
        {
          "internalType": "uint256",
          "name": "",
          "type": "uint256"
        }
      ],
      "name": "playerScores",
      "outputs": [
        {
          "internalType": "uint256",
          "name": "",
          "type": "uint256"
        }
      ],
      "stateMutability": "view",
      "type": "function"
    },
    {
      "inputs": [
        {
          "internalType": "uint256",
          "name": "",
          "type": "uint256"
        }
      ],
      "name": "players",
      "outputs": [
        {
          "internalType": "address",
          "name": "",
          "type": "address"
        }
      ],
      "stateMutability": "view",
      "type": "function"
    },
    {
      "inputs": [
        {
          "internalType": "uint256",
          "name": "score",
          "type": "uint256"
        }
      ],
      "name": "submitScore",
      "outputs": [],
      "stateMutability": "nonpayable",
      "type": "function"
    },
    {
      "inputs": [
        {
          "internalType": "address",
          "name": "newOwner",
          "type": "address"
        }
      ],
      "name": "transferOwnership",
      "outputs": [],
      "stateMutability": "nonpayable",
      "type": "function"
    }
  ],
  "bytecode": "0x608060405234801561001057600080fd5b50600380546001600160a01b03191633179055610b40806100326000396000f3fe608060405234801561001057600080fd5b50600436106100a85760003560e01c8063aff0b29711610071578063aff0b29714610168578063b162f2571461017d578063c2e522061461019d578063db2e21bc146101a5578063f2fde38b146101ad578063f71d96cb146101c057600080fd5b8062d8e104146100ad57806357171a48146100e057806373055bc3146101095780638da5cb5b1461011c578063968ffe3414610147575b600080fd5b6100cd6100bb366004610942565b60006020819052908152604090205481565b6040519081526020015b60405180910390f35b6100cd6100ee366004610942565b6001600160a01b031660009081526020819052604090205490565b6100cd610117366004610964565b6101d3565b60035461012f906001600160a01b031681565b6040516001600160a01b0390911681526020016100d7565b61015a61015536600461098e565b610204565b6040516100d79291906109e2565b61017b61017636600461098e565b6105ae565b005b61019061018b366004610942565b610788565b6040516100d79190610a42565b6002546100cd565b61017b6107f4565b61017b6101bb366004610942565b61085a565b61012f6101ce36600461098e565b6108fc565b600160205281600052604060002081815481106101ef57600080fd5b90600052602060002001600091509150505481565b606080600060028054905067ffffffffffffffff81111561022757610227610a55565b604051908082528060200260200182016040528015610250578160200160208202803683370190505b50905060005b6002548110156102cd576002818154811061027357610273610a6b565b9060005260206000200160009054906101000a90046001600160a01b03168282815181106102a3576102a3610a6b565b6001600160a01b0390921660209283029190910190910152806102c581610a97565b915050610256565b5060005b81518110156104395760006102e7826001610ab0565b90505b82518110156104265760008084838151811061030857610308610a6b565b60200260200101516001600160a01b03166001600160a01b031681526020019081526020016000205460008085858151811061034657610346610a6b565b60200260200101516001600160a01b03166001600160a01b0316815260200190815260200160002054101561041457600083838151811061038957610389610a6b565b602002602001015190508382815181106103a5576103a5610a6b565b60200260200101518484815181106103bf576103bf610a6b565b60200260200101906001600160a01b031690816001600160a01b031681525050808483815181106103f2576103f2610a6b565b60200260200101906001600160a01b031690816001600160a01b031681525050505b8061041e81610a97565b9150506102ea565b508061043181610a97565b9150506102d1565b5060008151851061044b57815161044d565b845b905060008167ffffffffffffffff81111561046a5761046a610a55565b604051908082528060200260200182016040528015610493578160200160208202803683370190505b50905060008267ffffffffffffffff8111156104b1576104b1610a55565b6040519080825280602002602001820160405280156104da578160200160208202803683370190505b50905060005b838110156105a1578481815181106104fa576104fa610a6b565b602002602001015183828151811061051457610514610a6b565b60200260200101906001600160a01b031690816001600160a01b03168152505060008086838151811061054957610549610a6b565b60200260200101516001600160a01b03166001600160a01b031681526020019081526020016000205482828151811061058457610584610a6b565b60209081029190910101528061059981610a97565b9150506104e0565b5090969095509350505050565b80600081116106045760405162461bcd60e51b815260206004820152601c60248201527f53636f7265206d7573742062652067726561746572207468616e20300000000060448201526064015b60405180910390fd5b620f42408111156106575760405162461bcd60e51b815260206004820152601d60248201527f53636f72652063616e6e6f742065786365656420312c3030302c30303000000060448201526064016105fb565b33600081815260208190526040902054808411156106c3576001600160a01b0382166000818152602081815260409182902087905581518481529081018790527f8356e069dc4cef35b07a1a0682cdc3405fa8a8345dcf7a8b819a2e2b4eebfd01910160405180910390a25b6001600160a01b0382166000908152600160208181526040832080549283018155835282200185905581900361073f57600280546001810182556000919091527f405787fa12a823e0f2b7631cc41b3ba8828b3321ca811111fa75cd3aa3bb5ace0180546001600160a01b0319166001600160a01b0384161790555b604080518581524260208201526001600160a01b038416917fb7f20d0949b6a8bc59d005af4a52f7ff5d0cfcde9056fa556adb0e4b24dcb6d2910160405180910390a250505050565b6001600160a01b0381166000908152600160209081526040918290208054835181840281018401909452808452606093928301828280156107e857602002820191906000526020600020905b8154815260200190600101908083116107d4575b50505050509050919050565b6003546001600160a01b0316331461081e5760405162461bcd60e51b81526004016105fb90610ac9565b6003546040516001600160a01b03909116904780156108fc02916000818181858888f19350505050158015610857573d6000803e3d6000fd5b50565b6003546001600160a01b031633146108845760405162461bcd60e51b81526004016105fb90610ac9565b6001600160a01b0381166108da5760405162461bcd60e51b815260206004820181905260248201527f4e6577206f776e65722063616e6e6f74206265207a65726f206164647265737360448201526064016105fb565b600380546001600160a01b0319166001600160a01b0392909216919091179055565b6002818154811061090c57600080fd5b6000918252602090912001546001600160a01b0316905081565b80356001600160a01b038116811461093d57600080fd5b919050565b60006020828403121561095457600080fd5b61095d82610926565b9392505050565b6000806040838503121561097757600080fd5b61098083610926565b946020939093013593505050565b6000602082840312156109a057600080fd5b5035919050565b600081518084526020808501945080840160005b838110156109d7578151875295820195908201906001016109bb565b509495945050505050565b604080825283519082018190526000906020906060840190828701845b82811015610a245781516001600160a01b0316845292840192908401906001016109ff565b50505083810382850152610a3881866109a7565b9695505050505050565b60208152600061095d60208301846109a7565b634e487b7160e01b600052604160045260246000fd5b634e487b7160e01b600052603260045260246000fd5b634e487b7160e01b600052601160045260246000fd5b600060018201610aa957610aa9610a81565b5060010190565b80820180821115610ac357610ac3610a81565b92915050565b60208082526021908201527f4f6e6c79206f776e65722063616e2063616c6c20746869732066756e6374696f6040820152603760f91b60608201526080019056fea26469706673582212207e72fbcf094b2344d64b7ae58b6f8067ce7bc44ec526a5e0140cc63079c4367864736f6c63430008130033",
  "linkReferences": {},
  "deployedLinkReferences": {}
}